{
  "_format": "hh-sol-artifact-1",
  "contractName": "VerifierAndTable",
  "sourceName": "src/VerifierAndTable.sol",
  "abi": [
    {
      "inputs": [
        {
          "internalType": "address",
          "name": "_bridge",
          "type": "address"
        }
      ],
      "stateMutability": "nonpayable",
      "type": "constructor"
    },
    {
      "inputs": [
        {
          "internalType": "bytes28",
          "name": "namespace",
          "type": "bytes28"
        }
      ],
      "name": "IsNamespaceVerified",
      "outputs": [
        {
          "internalType": "bool",
          "name": "",
          "type": "bool"
        }
      ],
      "stateMutability": "view",
      "type": "function"
    },
    {
      "inputs": [
        {
          "components": [
            {
              "internalType": "bytes[]",
              "name": "data",
              "type": "bytes[]"
            },
            {
              "components": [
                {
                  "internalType": "uint256",
                  "name": "beginKey",
                  "type": "uint256"
                },
                {
                  "internalType": "uint256",
                  "name": "endKey",
                  "type": "uint256"
                },
                {
                  "components": [
                    {
                      "components": [
                        {
                          "internalType": "bytes1",
                          "name": "version",
                          "type": "bytes1"
                        },
                        {
                          "internalType": "bytes28",
                          "name": "id",
                          "type": "bytes28"
                        }
                      ],
                      "internalType": "struct Namespace",
                      "name": "min",
                      "type": "tuple"
                    },
                    {
                      "components": [
                        {
                          "internalType": "bytes1",
                          "name": "version",
                          "type": "bytes1"
                        },
                        {
                          "internalType": "bytes28",
                          "name": "id",
                          "type": "bytes28"
                        }
                      ],
                      "internalType": "struct Namespace",
                      "name": "max",
                      "type": "tuple"
                    },
                    {
                      "internalType": "bytes32",
                      "name": "digest",
                      "type": "bytes32"
                    }
                  ],
                  "internalType": "struct NamespaceNode[]",
                  "name": "sideNodes",
                  "type": "tuple[]"
                }
              ],
              "internalType": "struct NamespaceMerkleMultiproof[]",
              "name": "shareProofs",
              "type": "tuple[]"
            },
            {
              "components": [
                {
                  "internalType": "bytes1",
                  "name": "version",
                  "type": "bytes1"
                },
                {
                  "internalType": "bytes28",
                  "name": "id",
                  "type": "bytes28"
                }
              ],
              "internalType": "struct Namespace",
              "name": "namespace",
              "type": "tuple"
            },
            {
              "components": [
                {
                  "components": [
                    {
                      "internalType": "bytes1",
                      "name": "version",
                      "type": "bytes1"
                    },
                    {
                      "internalType": "bytes28",
                      "name": "id",
                      "type": "bytes28"
                    }
                  ],
                  "internalType": "struct Namespace",
                  "name": "min",
                  "type": "tuple"
                },
                {
                  "components": [
                    {
                      "internalType": "bytes1",
                      "name": "version",
                      "type": "bytes1"
                    },
                    {
                      "internalType": "bytes28",
                      "name": "id",
                      "type": "bytes28"
                    }
                  ],
                  "internalType": "struct Namespace",
                  "name": "max",
                  "type": "tuple"
                },
                {
                  "internalType": "bytes32",
                  "name": "digest",
                  "type": "bytes32"
                }
              ],
              "internalType": "struct NamespaceNode[]",
              "name": "rowRoots",
              "type": "tuple[]"
            },
            {
              "components": [
                {
                  "internalType": "bytes32[]",
                  "name": "sideNodes",
                  "type": "bytes32[]"
                },
                {
                  "internalType": "uint256",
                  "name": "key",
                  "type": "uint256"
                },
                {
                  "internalType": "uint256",
                  "name": "numLeaves",
                  "type": "uint256"
                }
              ],
              "internalType": "struct BinaryMerkleProof[]",
              "name": "rowProofs",
              "type": "tuple[]"
            },
            {
              "components": [
                {
                  "internalType": "uint256",
                  "name": "tupleRootNonce",
                  "type": "uint256"
                },
                {
                  "components": [
                    {
                      "internalType": "uint256",
                      "name": "height",
                      "type": "uint256"
                    },
                    {
                      "internalType": "bytes32",
                      "name": "dataRoot",
                      "type": "bytes32"
                    }
                  ],
                  "internalType": "struct DataRootTuple",
                  "name": "tuple",
                  "type": "tuple"
                },
                {
                  "components": [
                    {
                      "internalType": "bytes32[]",
                      "name": "sideNodes",
                      "type": "bytes32[]"
                    },
                    {
                      "internalType": "uint256",
                      "name": "key",
                      "type": "uint256"
                    },
                    {
                      "internalType": "uint256",
                      "name": "numLeaves",
                      "type": "uint256"
                    }
                  ],
                  "internalType": "struct BinaryMerkleProof",
                  "name": "proof",
                  "type": "tuple"
                }
              ],
              "internalType": "struct AttestationProof",
              "name": "attestationProof",
              "type": "tuple"
            }
          ],
          "internalType": "struct SharesProof",
          "name": "sharesProof",
          "type": "tuple"
        }
      ],
      "name": "VerifySharesToDataRootTupleRoot",
      "outputs": [
        {
          "internalType": "bool",
          "name": "",
          "type": "bool"
        },
        {
          "internalType": "enum DAVerifier.ErrorCodes",
          "name": "",
          "type": "uint8"
        }
      ],
      "stateMutability": "nonpayable",
      "type": "function"
    },
    {
      "inputs": [
        {
          "internalType": "bytes28",
          "name": "",
          "type": "bytes28"
        }
      ],
      "name": "VerifyTable",
      "outputs": [
        {
          "internalType": "uint256",
          "name": "blockHeight",
          "type": "uint256"
        },
        {
          "internalType": "bool",
          "name": "verified",
          "type": "bool"
        }
      ],
      "stateMutability": "view",
      "type": "function"
    },
    {
      "inputs": [
        {
          "internalType": "bytes32",
          "name": "data",
          "type": "bytes32"
        }
      ],
      "name": "bytes32ToBytes",
      "outputs": [
        {
          "internalType": "bytes28",
          "name": "",
          "type": "bytes28"
        }
      ],
      "stateMutability": "pure",
      "type": "function"
    }
  ],
  "bytecode": "0x60803461007457601f611a3938819003918201601f19168301916001600160401b038311848410176100795780849260209460405283398101031261007457516001600160a01b0381169081900361007457600080546001600160a01b0319169190911790556040516119a990816100908239f35b600080fd5b634e487b7160e01b600052604160045260246000fdfe6080604081815260048036101561001557600080fd5b600092833560e01c90816317d0b41b146105c45750806330c433f0146105805780634c0999c7146104da5763b5e3cf5b1461004f57600080fd5b346104d65760206003199181833601126103945780359467ffffffffffffffff918287116104d25760e08588360301126104d25785519660c08801888110858211176104bf578752808201358481116104bb57810193366023860112156104bb57828501356024956100c0826106bc565b916100cd8b51938461069a565b808352878984019160051b8301019136831161043557888101915b83831061043957505050508952848201358181116103945782013660238201121561039457838101359061011b826106bc565b916101288b51938461069a565b808352878984019160051b8301019136831161043557888101915b8383106103ca5750505050868a015261015f36604484016106d4565b91888a019283526084810135828111610398576101819085369184010161071f565b60608b015260a4810135828111610398578101366023820112156103985784810135906101ad826106bc565b916101ba8c51938461069a565b808352888a84019160051b830101913683116103c657898101915b83831061039c575050505060808b015260c481013590828211610398570190608082360398890112610394578880519861020e8a610662565b838601358a52602319011261039457885161022881610630565b868301358152604483013588820152878901526064820135908111610394576102559136910184016107c0565b8787015260a088019586528285885161026d81610630565b82815201525187518751908882018780840152815180915260608301908860608260051b86010193019187905b8282106103525750505050986102c0826102d093899a9b9c0390601f198201815261069a565b84546001600160a01b03166108a5565b96819891610304575b50505086519515158652600b8510156102f457505050820152f35b634e487b7160e01b825260219052fd5b6001915101515189519061031782610630565b81528681019289151584528763ffffffff1991015116855281875289852090518155019051151560ff801983541691161790553880856102d9565b909192938a8080600193605f198a8203018652885161037c81518092818552858086019101610882565b601f01601f191601019601949391909101910161029a565b8480fd5b8580fd5b82358781116103c2578c916103b783928e36918701016107c0565b8152019201916101d5565b8a80fd5b8880fd5b823586811161043157820160606023198236030112610431578d51906103ef82610662565b8b810135825260448101358d830152606481013588811161042d57918f61041e8f95938f87963692010161071f565b90820152815201920191610143565b8b80fd5b8980fd5b8780fd5b823586811161043157820136604382011215610431578a810135906044908883116104a957908f916104788f94935194601f19601f860116018561069a565b828452368284830101116104a5578e838196948f93948397950183860137830101528152019201916100e8565b8c80fd5b634e487b7160e01b8c5260418b528c8cfd5b8380fd5b634e487b7160e01b845260418352602484fd5b5080fd5b8280fd5b509190346104d2576020806003193601126104d65782908435825b601c841061050e57845163ffffffff1987168152602090f35b909192948386101561056d576001600160fd1b038616860361055a5782861a60f81b6001600160f81b031916600387901b1c63ffffffff191618946105529061085d565b9291906104f5565b634e487b7160e01b825260118752602482fd5b634e487b7160e01b825260328752602482fd5b5050346104d25760203660031901126104d257809163ffffffff196105a3610617565b16815260016020522060ff6001825492015416825191825215156020820152f35b838534610614576020366003190112610614579060209260ff600183869563ffffffff196105f0610617565b1681528287522061060084610630565b805484520154161515928391015251908152f35b80fd5b6004359063ffffffff198216820361062b57565b600080fd5b6040810190811067ffffffffffffffff82111761064c57604052565b634e487b7160e01b600052604160045260246000fd5b6060810190811067ffffffffffffffff82111761064c57604052565b6080810190811067ffffffffffffffff82111761064c57604052565b90601f8019910116810190811067ffffffffffffffff82111761064c57604052565b67ffffffffffffffff811161064c5760051b60200190565b919082604091031261062b576040516106ec81610630565b9182908035906001600160f81b03198216820361062b57908252602001359063ffffffff198216820361062b5760200152565b81601f8201121561062b578035906020610738836106bc565b93604090610749604051968761069a565b8486526020860191602060a08097028601019482861161062b57602001925b858410610779575050505050505090565b868484031261062b57848791835161079081610662565b61079a86886106d4565b81526107a8868689016106d4565b83820152608087013585820152815201930192610768565b91909160608184031261062b57604051906107da82610662565b8193813567ffffffffffffffff811161062b57820181601f8201121561062b576020918135610808816106bc565b92610816604051948561069a565b818452848085019260051b82010192831161062b578401905b82821061084e5750505083528082013590830152604090810135910152565b8135815290840190840161082f565b600019811461086c5760010190565b634e487b7160e01b600052601160045260246000fd5b60005b8381106108955750506000910152565b8181015183820152602001610885565b919060608101928351906108c66080840191825160a0860194855192610900565b9590156108f6576108f29495508351936020806040818401519301519351945195510151015194610a88565b9091565b5050505060009190565b9291909180519060208092818301966040885194015183604051958694631f3302a960e01b8652600486015280516024860152015160448401526080606484015260e483019080519160606084860152825180915285610104860193019060005b8181106109fe575050508481015160a48501526040015160c48401528290039082906001600160a01b03165afa9081156109f2576000916109bc575b50156109b0576108f29351015191610e69565b50505050600090600490565b8281813d83116109eb575b6109d1818361069a565b810103126104d2575190811515820361061457503861099d565b503d6109c7565b6040513d6000823e3d90fd5b8251855289978997509485019490920191600101610961565b8051821015610a2b5760209160051b010190565b634e487b7160e01b600052603260045260246000fd5b9061010091820391821161086c57565b60001981019190821161086c57565b9190820391821161086c57565b600101908160011161086c57565b9190820180921161086c57565b91929594610a97919487610e69565b9015610e5e57508251855103610e5157600094855b8451871015610aed57610ae5600191610adf6020610aca8b8a610a17565b510151610ad78b8a610a17565b515190610a60565b90610a7b565b960195610aac565b9092955093909293835103610e445760009391845b8351861015610e3557610b276020610b1a8887610a17565b510151610ad78887610a17565b93610b3c610b358684610a7b565b8388610f29565b600b819792971015610e1f5780610e0f5750610b588885610a17565b5191610b648982610a17565b5194610b708851611039565b9860005b8951811015610c47578c60206000610bf4610ba3610b938f8790610a17565b5194610b9d610ff4565b50611089565b604094610be48651918683019386855262ffffff1916602184015282603e91610bd4815180928b8686019101610882565b810103601e81018452018261069a565b8551928392839251928391610882565b8101039060025afa15610c3d57908d610c2b828e60019560005190805195610c1b87610662565b8087526020870152850152610a17565b52610c36818d610a17565b5001610b74565b513d6000823e3d90fd5b509750979194989392959990600091610c6460408c015151611039565b98835b8c51818114158e81610e00575b5015610cc2578d82610cb0888f610c9f826040610c97610cb699610cbc9b6113d2565b970151610a17565b51610caa8383610a17565b52610a17565b50610a7b565b9461085d565b93610c67565b50509998509a969150949398610cdb602082015161143b565b60019381851b918083046002149015171561086c5760008083610d0e938880969210610df8575b9082869594928861146c565b5050939093925b610dbd575b5050509081610d3e9251610d2f835191611089565b9062ffffff1980958192611089565b169116149283610d91575b5082610d7e575b505015610d6f5750600191610d6491610a7b565b950194929092610b02565b97505050509250505060009190565b6040919250810151910151143880610d50565b90925060208301519080610db2610dac602086015194611089565b93611089565b169116149138610d49565b90919260408201518051851015610dee578391610ddd86610de493610a17565b5190611579565b9301919081610d15565b5092829150610d1a565b859150610d02565b6040915001515186108e610c74565b9850505050509250505060009190565b634e487b7160e01b600052602160045260246000fd5b50509350505050600190600090565b9350505050600090600790565b5050509050600090600590565b945050505060009190565b8151815103610f1e5760005b8251811015610f1257610ef8610e95610e8e8385610a17565b5151611089565b602090610eae82610ea68688610a17565b510151611089565b9060409182610ebd8789610a17565b51015192519362ffffff198093169085015216603d830152605a90818301528152610ee78161067e565b610ef18386610a17565b51866110fc565b5015610f0657600101610e75565b50505050600090600290565b50505050600190600090565b505050600090600690565b9190818111610fec578251808211908115610fe2575b50610fda57610f4e8183610a60565b92610f58846106bc565b93610f66604051958661069a565b808552610f75601f19916106bc565b0160005b818110610fc9575050815b838110610f95575050505090600090565b80610fc2610fa560019385610a17565b51610fb08684610a60565b90610fbb828a610a17565b5287610a17565b5001610f84565b806060602080938901015201610f79565b505090600a90565b9050821138610f3f565b505090600990565b6040519061100182610662565b6000604083815161101181610630565b8381528360208201528152815161102781610630565b83815283602082015260208201520152565b90611043826106bc565b611050604051918261069a565b8281528092611061601f19916106bc565b019060005b82811061107257505050565b60209061107d610ff4565b82828501015201611066565b80516020918201516040516001600160f81b031990921692820192835263ffffffff19166021820152601d81526110bf81610630565b51905162ffffff19918282169190601d81106110dd575b5050905090565b83919250601d0360031b1b16168038806110d6565b60061115610e1f57565b6040820180519394936001811161120657508251516111f9575b60208301908151815111156111eb5760206040519661117282890189611161602160009c8d96878652611151815180928b8686019101610882565b810103600181018452018261069a565b604051928392839251928391610882565b8101039060025afa156111e05785519351918251156111c9579061119b939491519051906112e0565b60068110156111b557806111af5750149190565b92915050565b634e487b7160e01b85526021600452602485fd5b50516001141590506111da57149190565b50508190565b6040513d87823e3d90fd5b505050509050600090600290565b5050509050600090600190565b611217845151916020860151611229565b14611116575050509050600090600190565b90600190818111156112d85760005b8183821b106112b75761010090810390811161086c5761125790610a41565b928261126285610a51565b1b9061126d82610a51565b811161127a575050505090565b929350909183820361128c5750505090565b6112ab93509061129f816112a593610a60565b92610a60565b90611229565b6112b490610a6d565b90565b8281018091111561123857634e487b7160e01b600052601160045260246000fd5b505050600090565b93929381156113c757600182146113b2578451156113a757826113028361143b565b61131561130f8851610a51565b886116f8565b92818110611372578161129f611335969361132f93610a60565b906112e0565b9091611340826110f2565b8161136b57505061135f83611359611365949551610a51565b90610a17565b516117bc565b90600090565b9350919050565b61137c94506112e0565b9091611387826110f2565b8161136b5750506113a083611359611365949551610a51565b51906117bc565b505090915090600590565b50509091516113c15790600090565b90600490565b505090915090600390565b90918160005b83151580611430575b156113f9576113ef9061085d565b9260011c926113d8565b92506114099061140e9294610a60565b6117fe565b60001981019190821161086c5781600192821161142a57501b90565b90501b90565b5083600116156113e1565b6001811061062b5761144c816117fe565b600019810190811161086c576001901b9081146114665790565b60011c90565b93959492909261147a610ff4565b5060016114878484610a60565b146115345784518211801590611526575b61150a576114c5906114b26114ad8585610a60565b61143b565b976114bd8986610a7b565b85878961146c565b5091976114e096929591946114da9190610a7b565b9161146c565b919490939290911515600114611501576114f991611579565b929190600090565b50929190600090565b93604091935061151e95969250015161183e565b929391929091565b506020850151831015611498565b939495918086949294511115908161156b575b5061155a5750604061151e94015161183e565b805161151e9550919391925061181f565b905060208601511138611547565b90611582610ff4565b506115908251825190611854565b916000916040918251936115a385610630565b8085526020809501526115d181516115c26115bc611894565b91611089565b9062ffffff1980938192611089565b169116146000146116b4576115e4611894565b925b6115f08351611089565b91856115fe88860151611089565b940151918161160d8251611089565b8861161a8b850151611089565b93015194828a5198818d8b0199600160f81b8b521660218b015216603e890152605b88015216607b86015216609884015260b583015260b5825260e0820182811067ffffffffffffffff82111761064c578592816116816000948289528351928391610882565b8101039060025afa156116a9576000519282519461169e86610662565b855284015282015290565b50513d6000823e3d90fd5b825181806116cc610dac6116c6611894565b94611089565b169116146000146116e15784820151926115e6565b6116f28583015186850151906118ce565b926115e6565b91908251811161175f5761170b816106bc565b90611719604051928361069a565b808252601f19611728826106bc565b0136602084013760005b818110611740575090925050565b8061174d60019287610a17565b516117588286610a17565b5201611732565b60405162461bcd60e51b815260206004820152602f60248201527f496e76616c69642072616e67653a205f626567696e206f72205f656e6420617260448201526e65206f7574206f6620626f756e647360881b6064820152608490fd5b6117eb6000916020936040519085820192600160f81b845260218301526041820152604181526111618161067e565b8101039060025afa156109f25760005190565b806000915b61180b575090565b906118159061085d565b9060011c80611803565b906118369291949394611830610ff4565b50611909565b919392909190565b9061184c9291611830610ff4565b919390929190565b906000602060405161186581610630565b828152015261187382611089565b62ffffff198061188284611089565b169116101561188f575090565b905090565b600060206040516118a481610630565b82815201526040516118b581610630565b6001600160f81b0319815263ffffffff19602082015290565b90600060206040516118df81610630565b82815201526118ed82611089565b62ffffff19806118fc84611089565b169116111561188f575090565b90809392611915610ff4565b508251908115918215611968575b50811561195d575b5061194c5761193991610a17565b516001830180931161086c579190600090565b5050611956610ff4565b9190600190565b90508110153861192b565b83101591503861192356fea2646970667358221220c29b5212ff704d82a340a42af17790cf114425880bcf1b5f2b14fa1b29bf082d64736f6c63430008160033",
  "linkReferences": {},
  "deployedLinkReferences": {}
}